S0170000466173745F50574D5F54696D6572312E737265639B
S11300000C942A000C9434000C9434000C943400A6
S11300100C9434000C9434000C9434000C9434008C
S11300200C9434000C9434000C9434000C9434007C
S11300300C9434000C9434000C9434000C9434006C
S11300400C9434000C9434000C9434000C9434005C
S11300500C94340011241FBECFE5D8E0DEBFCDBF21
S11300600E9416020C9497020C940000CF93DF9325
S113007000D0CDB7DEB789836A838981883078F56B
S11300808A818130A1F48BE390E02BE330E0F90125
S11300902081622F2981422F50E021E030E002C00C
S11300A0220F331F4A95E2F7262BFC0120838A8115
S11300B08823A9F48BE390E02BE330E0F90120815D
S11300C0622F2981422F50E021E030E002C0220F4C
S11300D0331F4A95E2F720952623FC01208389816A
S11300E08830C0F189818031A8F58A818130B9F4E2
S11300F088E390E028E330E0F9012081622F298130
S1130100222F30E0A9014850510921E030E002C01B
S1130110220F331F4A95E2F7262BFC0120838A81A4
S11301208823C1F488E390E028E330E0F9012081DA
S1130130622F2981222F30E0A9014850510921E082
S113014030E002C0220F331F4A95E2F720952623A0
S1130150FC01208389818031C0F189818831A8F52F
S11301608A818130B9F485E390E025E330E0F90138
S11301702081622F2981222F30E0A90140515109A9
S113018021E030E002C0220F331F4A95E2F7262B0C
S1130190FC0120838A818823C1F485E390E025E370
S11301A030E0F9012081622F2981222F30E0A9015A
S11301B04051510921E030E002C0220F331F4A951B
S11301C0E2F720952623FC01208389818931C0F13F
S11301D089818032A8F58A818130B9F482E390E084
S11301E022E330E0F9012081622F2981222F30E0BF
S11301F0A9014851510921E030E002C0220F331F08
S11302004A95E2F7262BFC0120838A818823C1F4D6
S113021082E390E022E330E0F9012081622F29811A
S1130220222F30E0A9014851510921E030E002C0F9
S1130230220F331F4A95E2F720952623FC012083E1
S113024000000F900F90DF91CF910895CF93DF932B
S113025000D0CDB7DEB789836A838981883078F589
S11302608A818130A1F48AE390E02AE330E0F90145
S11302702081622F2981422F50E021E030E002C02A
S1130280220F331F4A95E2F7262BFC0120838A8133
S11302908823A9F48AE390E02AE330E0F90120817D
S11302A0622F2981422F50E021E030E002C0220F6A
S11302B0331F4A95E2F720952623FC012083898188
S11302C08830C0F189818031A8F58A818130B9F400
S11302D087E390E027E330E0F9012081622F298150
S11302E0222F30E0A9014850510921E030E002C03A
S11302F0220F331F4A95E2F7262BFC0120838A81C3
S11303008823C1F487E390E027E330E0F9012081FA
S1130310622F2981222F30E0A9014850510921E0A0
S113032030E002C0220F331F4A95E2F720952623BE
S1130330FC01208389818031C0F189818831A8F54D
S11303408A818130B9F484E390E024E330E0F90158
S11303502081622F2981222F30E0A90140515109C7
S113036021E030E002C0220F331F4A95E2F7262B2A
S1130370FC0120838A818823C1F484E390E024E390
S113038030E0F9012081622F2981222F30E0A90178
S11303904051510921E030E002C0220F331F4A9539
S11303A0E2F720952623FC01208389818931C0F15D
S11303B089818032A8F58A818130B9F481E390E0A3
S11303C021E330E0F9012081622F2981222F30E0DE
S11303D0A9014851510921E030E002C0220F331F26
S11303E04A95E2F7262BFC0120838A818823C1F4F5
S11303F081E390E021E330E0F9012081622F29813B
S1130400222F30E0A9014851510921E030E002C017
S1130410220F331F4A95E2F720952623FC012083FF
S113042000000F900F90DF91CF910895CF93DF9349
S1130430CDB7DEB761E08AE10E94260161E08BE17D
S11304400E94260161E08EE10E94260161E08FE1B5
S11304500E94260161E08EE10E94360060E08FE197
S11304600E9436000E943502FFCFCF93DF93CDB7B1
S1130470DEB761E08CE10E94260161E08DE10E941B
S113048026018DE490E0FC0110828CE490E0FC01F4
S113049010828FE490E02FE430E0F90120812064A1
S11304A0FC0120838EE490E02EE430E0F901208109
S11304B02068FC0120838FE490E02FE430E0F90110
S11304C020812E7FFC0120838FE490E02FE430E034
S11304D0F90120812260FC0120838EE490E02EE467
S11304E030E0F90120812860FC0120838EE490E053
S11304F02EE430E0F90120812061FC01208387E4AF
S113050090E026E0FC01208386E490E02FE3FC01E8
S113051020838BE490E026E0FC0120838AE490E0D1
S11305202FE3FC0120830000DF91CF910895F8941C
S1050530FFCFF7
S9030000FC
