S0170000466173745F50574D5F54696D6572312E737265639B
S11300000C942A000C9434000C9434000C943400A6
S11300100C9434000C9434000C9434000C9434008C
S11300200C9434000C9434000C9434000C9434007C
S11300300C9434000C9434000C9434000C9434006C
S11300400C9434000C9434000C9434000C9434005C
S11300500C94340011241FBECFE5D8E0DEBFCDBF21
S11300600E9416020C9426030C940000CF93DF9395
S113007000D0CDB7DEB789836A838981883078F56B
S11300808A818130A1F48BE390E02BE330E0F90125
S11300902081622F2981422F50E021E030E002C00C
S11300A0220F331F4A95E2F7262BFC0120838A8115
S11300B08823A9F48BE390E02BE330E0F90120815D
S11300C0622F2981422F50E021E030E002C0220F4C
S11300D0331F4A95E2F720952623FC01208389816A
S11300E08830C0F189818031A8F58A818130B9F4E2
S11300F088E390E028E330E0F9012081622F298130
S1130100222F30E0A9014850510921E030E002C01B
S1130110220F331F4A95E2F7262BFC0120838A81A4
S11301208823C1F488E390E028E330E0F9012081DA
S1130130622F2981222F30E0A9014850510921E082
S113014030E002C0220F331F4A95E2F720952623A0
S1130150FC01208389818031C0F189818831A8F52F
S11301608A818130B9F485E390E025E330E0F90138
S11301702081622F2981222F30E0A90140515109A9
S113018021E030E002C0220F331F4A95E2F7262B0C
S1130190FC0120838A818823C1F485E390E025E370
S11301A030E0F9012081622F2981222F30E0A9015A
S11301B04051510921E030E002C0220F331F4A951B
S11301C0E2F720952623FC01208389818931C0F13F
S11301D089818032A8F58A818130B9F482E390E084
S11301E022E330E0F9012081622F2981222F30E0BF
S11301F0A9014851510921E030E002C0220F331F08
S11302004A95E2F7262BFC0120838A818823C1F4D6
S113021082E390E022E330E0F9012081622F29811A
S1130220222F30E0A9014851510921E030E002C0F9
S1130230220F331F4A95E2F720952623FC012083E1
S113024000000F900F90DF91CF910895CF93DF932B
S113025000D0CDB7DEB789836A838981883078F589
S11302608A818130A1F48AE390E02AE330E0F90145
S11302702081622F2981422F50E021E030E002C02A
S1130280220F331F4A95E2F7262BFC0120838A8133
S11302908823A9F48AE390E02AE330E0F90120817D
S11302A0622F2981422F50E021E030E002C0220F6A
S11302B0331F4A95E2F720952623FC012083898188
S11302C08830C0F189818031A8F58A818130B9F400
S11302D087E390E027E330E0F9012081622F298150
S11302E0222F30E0A9014850510921E030E002C03A
S11302F0220F331F4A95E2F7262BFC0120838A81C3
S11303008823C1F487E390E027E330E0F9012081FA
S1130310622F2981222F30E0A9014850510921E0A0
S113032030E002C0220F331F4A95E2F720952623BE
S1130330FC01208389818031C0F189818831A8F54D
S11303408A818130B9F484E390E024E330E0F90158
S11303502081622F2981222F30E0A90140515109C7
S113036021E030E002C0220F331F4A95E2F7262B2A
S1130370FC0120838A818823C1F484E390E024E390
S113038030E0F9012081622F2981222F30E0A90178
S11303904051510921E030E002C0220F331F4A9539
S11303A0E2F720952623FC01208389818931C0F15D
S11303B089818032A8F58A818130B9F481E390E0A3
S11303C021E330E0F9012081622F2981222F30E0DE
S11303D0A9014851510921E030E002C0220F331F26
S11303E04A95E2F7262BFC0120838A818823C1F4F5
S11303F081E390E021E330E0F9012081622F29813B
S1130400222F30E0A9014851510921E030E002C017
S1130410220F331F4A95E2F720952623FC012083FF
S113042000000F900F90DF91CF910895CF93DF9349
S1130430CDB7DEB761E08CE10E94260161E08DE179
S11304400E94260161E08AE10E94260161E08BE1BD
S11304500E94260161E08EE10E94260161E08FE1A5
S11304600E94260189E10E94460261E08EE10E9419
S1130470360060E08FE10E94360061E08AE10E946C
S1130480360060E08BE10E943600EFCFCF93DF931C
S1130490CDB7DEB727970FB6F894DEBF0FBECDBF3A
S11304A08F8387E490E02FEFFC01208386E490E0C3
S11304B02FEFFC01208387E490E0FC018081882FEA
S11304C090E0382F222786E490E0FC018081882F79
S11304D090E0820F931F9A8389838F81282F30E0C5
S11304E040E050E089819A81CC01A0E0B0E0BC01F9
S11304F0CD010E94DA02DC01CB010196A11DB11DE0
S113050024E630E040E050E0BC01CD010E94EA0264
S1130510DA01C9018B839C83AD83BE832BE430E075
S11305208B819C81AD81BE818827AA27BB27892F17
S11305309A2FAB2FBB27F90180838AE490E02B81AB
S1130540FC01208389E490E02FEBFC01208388E404
S113055090E02FEFFC0120838FE490E02FE430E063
S1130560F9012081206AFC0120838FE490E02FE4CC
S113057030E0F90120812260FC0120838EE490E0C8
S11305802EE430E0F90120812861FC0120838EE40F
S113059090E02EE430E0F90120812160FC01208309
S11305A0000027960FB6F894DEBF0FBECDBFDF91D3
S11305B0CF910895DB018F939F930E940C03BF9109
S11305C0AF91A29F800D911DA39F900DB29F900D9E
S11305D011240895A1E21A2EAA1BBB1BFD010DC014
S11305E0AA1FBB1FEE1FFF1FA217B307E407F507DF
S11305F020F0A21BB30BE40BF50B661F771F881FBB
S1130600991F1A9469F760957095809590959B0150
S1130610AC01BD01CF0108950E941703A59F900D61
S1130620B49F900DA49F800D911D11240895A29F45
S1130630B001B39FC001A39F700D811D1124911DB2
S1130640B29F700D811D1124911D0895F894FFCF60
S9030000FC
